:100000000C94DB000C94F8000C94F8000C94F800AD
:100010000C94F8000C94F8000C94F8000C94F80080
:100020000C94F8000C94F8000C94F8000C94F80070
:100030000C94F8000C94F8000C94F8000C94F80060
:100040000C94F8000C94F8000C94F8000C94F80050
:100050000C94F80041542B43495047534D4C4F43A7
:100060003D312C310D0A0041542B4854545050411D
:1000700052413D2255524C222C22687474703A2F02
:100080002F6D6170732E676F6F676C652E636F6D78
:100090002F6D6170733F713D220D0A0041542B4852
:1000A000545450504152413D22434944222C310D79
:1000B0000A0041542B48545450494E49540D0A00EB
:1000C00041542B48545450494E49543D3F0D0A0069
:1000D00041542B53415042523D302C310D0A0041C6
:1000E000542B53415042523D322C310D0A004154A1
:1000F0002B53415042523D312C310D0A0041542BBB
:1001000053415042523D332C312C22505744222C23
:1001100022737564616E69220D0A0041542B5341AC
:100120005042523D332C312C2255534552222C2221
:10013000737564616E69220D0A0041542B5341505E
:1001400042523D332C312C2241504E222C227375C9
:1001500064616E696E6574220D0A0041542B53412F
:100160005042523D332C312C22434F4E545950456E
:10017000222C2247505253220D0A0041542B434354
:1001800049440D0A0041542B434349443D3F0D0A65
:1001900000415426570D0A0041542B4950523D321C
:1001A0003430300D0A00415445300D0A004F4B00E9
:1001B00041540D0A000011241FBECFE5D8E0DEBF78
:1001C000CDBF13E0A0E6B0E0EAEFF2E102C0059097
:1001D0000D92A436B107D9F723E0A4E6B3E001C03D
:1001E0001D92AD37B207E1F70E94A3060C947B097C
:1001F0000C94000098B3282F207F9F70922B98BBFF
:10020000C098C19A0000C19832E43A95F1F700C055
:1002100028B330E1839FC0011124922F9F70892B56
:1002200088BBC19A0000C19883EF91E00197F1F774
:1002300000C0000008958FEF87BBC19887E893E165
:100240000197F1F700C0000083E30E94FA0082E307
:100250000E94FA0088E20E94FA008EE00E94FA00F2
:1002600081E00E94FA0083EF91E00197F1F700C06E
:10027000000086E00E94FA0080E80E94FA000895DB
:1002800098B3282F207F9F70922B98BBC09AC19A59
:100290000000C19832E43A95F1F700C028B330E18C
:1002A000839FC0011124922F9F70892B88BBC19A14
:1002B0000000C19883EF91E00197F1F700C00000C2
:1002C0000895CF93DF93EC018881882331F0219644
:1002D0000E94400189918111FBCFDF91CF91089558
:1002E00081E00E94FA0083EF91E00197F1F700C0EE
:1002F000000080E80E94FA00089510BCDC01CB01E8
:10030000880F991FAA1FBB1F880F991FAA1FBB1F09
:100310009C01AD01220F331F441F551F220F331FB5
:10032000441F551F60E472E48FE090E00E941C09B6
:10033000DA01C9010197A109B109892F9A2FAB2FC1
:10034000BB2780BD215029B988E18AB980E880BDEA
:1003500080BD80BD86E880BD08955D9BFECF8CB9D1
:1003600008955F9BFECF8CB108951F93CF93DF93C9
:10037000EC010E94B1018D30E1F70E94B1018A3099
:10038000A9F410E00E94B101FE01E10FF11D80838C
:100390001F5F8A3019F08D30A9F702C0812F01C08C
:1003A000812FC80FD11D2197188201C010E0812F25
:1003B000DF91CF911F910895CF93DF93EC01FE0160
:1003C0002491222351F02196FC0184910E94AD01D9
:1003D000CE01FE0124912111F6CFDF91CF91089536
:1003E00010927C0380EB91E00E94DC0180E990E0B8
:1003F0000E94B50180937C0343E050E06DEA71E018
:1004000088E693E00E945C0940917C0350E068E636
:1004100073E080E990E00E946509892B19F788E96B
:1004200091E00E94DC0180E990E00E94B501809398
:100430007C0343E050E06DEA71E088E693E00E94BF
:100440005C0940917C0350E068E673E080E990E04D
:100450000E946509892B19F781E991E00E94DC016E
:1004600080E990E00E94B50180937C0343E050E076
:100470006DEA71E088E693E00E945C0940917C039C
:1004800050E068E673E080E990E00E946509892BFE
:1004900019F786EA91E00E94DC0180E990E00E9471
:1004A000B50180937C0343E050E06DEA71E088E69B
:1004B00093E00E945C0940917C0350E068E673E0A1
:1004C00080E990E00E946509892B19F781E0089581
:1004D0002FE78AE196E0215080409040E1F700C08C
:1004E000000085E891E00E94DC0180E990E00E9434
:1004F000B50180937C0343E050E06DEA71E088E64B
:1005000093E00E945C0940917C0350E068E673E050
:1005100080E990E00E946509892BD1F68BE791E094
:100520000E94DC0180E990E00E94B50180937C0389
:1005300046E050E065E071E080E990E00E946509E6
:1005400021E0892B09F420E0822F0895BF92CF92F9
:10055000DF92EF92FF920F931F93CF93DF93CDB76C
:10056000DEB72C970FB6F894DEBF0FBECDBF182FA5
:100570008BE591E00E94DC0180E990E00E94B501EA
:1005800080937C0343E050E06DEA71E088E693E0FD
:100590000E945C0940917C0350E068E673E080E9CA
:1005A00090E00E946509892B19F78AE391E00E9487
:1005B000DC0180E990E00E94B50180937C0343E078
:1005C00050E06DEA71E088E693E00E945C0940919A
:1005D0007C0350E068E673E080E990E00E946509E2
:1005E000892B19F78BE191E00E94DC0180E990E012
:1005F0000E94B50180937C0343E050E06DEA71E016
:1006000088E693E00E945C0940917C0350E068E634
:1006100073E080E990E00E946509892B19F78DEF5E
:1006200090E00E94DC0180E990E00E94B501809397
:100630007C0343E050E06DEA71E088E693E00E94BD
:100640005C0940917C0350E068E673E080E990E04B
:100650000E946509892B19F7113009F052C08EEEFE
:1006600090E00E94DC0180E990E00E94B501809357
:100670007C0343E050E06DEA71E088E693E00E947D
:100680005C0940917C0350E068E673E080E990E00B
:100690000E946509009719F7B82EC92ED12C8E013A
:1006A0000F5F1F4FE02EF12E8FED90E00E94DC01D6
:1006B00080E990E00E94B50180937C0380919000D6
:1006C0008A3309F440C02B2D3C2D4D2DF901E05704
:1006D000FF4F8081F801E20FF31F80834F5F242FCB
:1006E00030E0F901E057FF4F80818A3379F7A901A3
:1006F0006BE071E08E2D9F2D0E946509892BA1F67C
:1007000022C011111EC080ED90E00E94DC0180E942
:1007100090E00E94B50180937C0343E050E06DEAD5
:1007200071E088E693E00E945C0940917C0350E010
:1007300068E673E080E990E00E946509892B19F072
:10074000E2CF80E001C081E02C960FB6F894DEBFC6
:100750000FBECDBFDF91CF911F910F91FF90EF9012
:10076000DF90CF90BF9008958F929F92AF92BF92EB
:10077000CF92DF92EF92FF920F931F93CF93DF936D
:10078000CDB7DEB7A4970FB6F894DEBF0FBECDBFCE
:1007900080EC90E00E94DC0180E990E00E94B501CD
:1007A00080937C0343E050E06DEA71E088E693E0DB
:1007B0000E945C0940917C0350E068E673E080E9A8
:1007C00090E00E9465098C01009711F7982EA12EE8
:1007D000B12CCE0101967C01C82EDF2C82EB90E07B
:1007E0000E94DC0180E990E00E94B50180937C03C7
:1007F00043E050E06DEA71E088E693E00E945C0916
:1008000040917C0350E068E673E080E990E00E944C
:100810006509892B11F1809190008A3309F1292D06
:100820003A2D4B2DF901E057FF4F8081F701E20F80
:10083000F31F80834F5F242F30E0F901E057FF4F13
:1008400080818A3379F7A90160E071E08C2D9D2DBC
:100850000E946509892B11F605C0AA24A39403C040
:10086000A12C01C0A12C802E912EB12C7E019DE0E7
:10087000E90EF11CCE2CDF2C8CE990E00E94DC010B
:1008800080E990E00E94B50180937C0343E050E052
:100890006DEA71E088E693E00E945C0940917C0378
:1008A00050E068E673E080E990E00E946509892BDA
:1008B00011F1809190008A3309F1282D392D4B2DAB
:1008C000F901E057FF4F8081F701E20FF31F8083AA
:1008D0004F5F242F30E0F901E057FF4F80818A33CA
:1008E00079F7A90160E071E08C2D9D2D0E946509CA
:1008F000892B11F605C09924939403C0912C01C053
:10090000912CB02EC12ED12C8E01075E1F4FE02EF0
:10091000F12E87E690E00E94DC0180E990E00E94E1
:10092000B50180937C0343E050E06DEA71E088E616
:1009300093E00E945C0940917C0350E068E673E01C
:1009400080E990E00E946509892B11F18091900067
:100950008A3301F12B2D3C2D4D2DF901E057FF4F2E
:100960008081F801E20FF31F80834F5F242F30E076
:10097000F901E057FF4F80818A3379F7A90160E0E0
:1009800071E08E2D9F2D0E946509892B11F604C000
:1009900091E003C090E001C090E0AA2039F09920D6
:1009A00039F081E0911105C080E003C080E001C012
:1009B00080E0A4960FB6F894DEBF0FBECDBFDF91E6
:1009C000CF911F910F91FF90EF90DF90CF90BF904C
:1009D000AF909F908F9008956F927F928F929F9289
:1009E000AF92BF92CF92DF92EF92FF920F931F933D
:1009F000CF93DF93CDB7DEB763970FB6F894DEBF22
:100A00000FBECDBF8CE0E0EEF0E0DE01119601906C
:100A10000D928A95E1F787E0EDEEF0E0DE011D969C
:100A200001900D928A95E1F7812C912CA12C8E01D9
:100A30000F5F1F4FC02ED12E0F2EFDECBF2EF02DBD
:100A400084E590E00E94DC0180E990E00E94B5011D
:100A500080937C03809190008A33A9F0282D392D52
:100A60007A2CF901E057FF4F8081F801E20FF31F64
:100A700080837394272D30E0F901E057FF4F808188
:100A80008A3379F703C0282D392D7A2CF801E20F2B
:100A9000F31F10820E94700182E191E00E946101C7
:100AA0008C2D9D2D0E94610180EC0E94FA0087E14F
:100AB00091E00E9461017B9CF12C1124F694F69444
:100AC000F69480E38F0D0E944001FF0C8F2D880F5C
:100AD000880FF80E872D8F19805D0E9440012FE945
:100AE00086E891E0215080409040E1F700C000008E
:100AF000E72CF12CA7016EE171E08C2D9D2D0E9459
:100B00006509892B09F0F6C073947394272D30E0A2
:100B1000F901E057FF4F80818C32B9F0FA2CF901CE
:100B2000E057FF4F8081EDE0F0E0EC0FFD1FEF0D8F
:100B3000F11D80837394F394272D30E0F901E05781
:100B4000FF4F80818C3259F701C0FA2CEDE0F0E0C4
:100B5000EC0FFD1FEF0DF11D1082CE010D960E94CE
:100B60003E09E82E682E0E94700189E291E00E9401
:100B7000610180E38E0D0E94400180EC0E94FA002A
:100B800082E391E00E946101FB9CE12C1124E69438
:100B9000E694E69480E38E0D0E944001EE0C8E2DCB
:100BA000880F880FE80E8F2D8E19805D0E944001FE
:100BB0002FE986E891E0215080409040E1F700C0A5
:100BC000000061103DCF739410926703872D90E071
:100BD000FC01E057FF4F20812C32B1F020E0FC01F6
:100BE000E057FF4F8081E22FF0E0EC57FF4F80830A
:100BF00073942F5F872D90E0FC01E057FF4F308109
:100C00003C3269F720936703E0916703F0E0EC570B
:100C1000FF4F1082739410926603872D90E0FC01C1
:100C2000E057FF4F20812C32B1F020E0FC01E0576B
:100C3000FF4F8081E22FF0E0E858FF4F80837394EC
:100C40002F5F872D90E0FC01E057FF4F30813C3251
:100C500069F720936603E0916603F0E0E858FF4FE0
:100C60001082739410926503872D90E0FC01E05789
:100C7000FF4F20812C32B1F020E0FC01E057FF4F04
:100C80008081E22FF0E0E459FF4F808373942F5F5F
:100C9000872D90E0FC01E057FF4F30813C3269F72F
:100CA00020936503E0916503F0E0E459FF4F108263
:100CB00073941092640380917C03871598F080E010
:100CC000E72DF0E0E057FF4F9081E82FF0E0E05A89
:100CD000FF4F908373948F5F90917C03971580F7FB
:100CE00080936403E0916403F0E0E05AFF4F1082C8
:100CF00081E00BC0A70160E071E08C2D9D2D0E946A
:100D00006509892B09F09CCE80E063960FB6F894B4
:100D1000DEBF0FBECDBFDF91CF911F910F91FF902E
:100D2000EF90DF90CF90BF90AF909F908F907F908B
:100D30006F9008958A98929A82E085BF8BB78064FD
:100D40008BBF789408950E949A060E941B0160E66A
:100D500079E080E090E00E947D012FE986E891E053
:100D6000215080409040E1F700C000000E947001D7
:100D700083E591E00E94610180EC0E94FA0084E624
:100D800091E00E9461018FE493EC0197F1F700C0BC
:100D900000000E94F0018823B9F00E94700185E7ED
:100DA00091E00E94610180EC0E94FA0086E891E0E7
:100DB0000E9461019FE729EA83E091502040804032
:100DC000E1F700C0000042C00E94700187E991E095
:100DD0000E94610180EC0E94FA0088EA91E00E9482
:100DE00061019FEB26EB86E0915020408040E1F7C7
:100DF00000C000000E94700189EB91E00E94610137
:100E000080EC0E94FA008AEC91E00E9461019FEB65
:100E100026EB86E0915020408040E1F700C00000C2
:100E20000E94700189EB91E00E94610180EC0E94B8
:100E3000FA008BED91E00E9461019FEB26EB86E0CA
:100E4000915020408040E1F700C000000E947001F6
:100E50008CEE91E00E94610180EC0E94FA008DEF1F
:100E600091E00E9461018FE493EC0197F1F700C0DB
:100E700000000E946802882309F452C00E94700199
:100E80008CEE91E00E94610180EC0E94FA008EE0FD
:100E900092E00E9461019FE729EA83E0915020409F
:100EA0008040E1F700C000003FC00E9470018FE168
:100EB00092E00E94610180EC0E94FA0088EA91E0D1
:100EC0000E9461019FEB26EB86E09150204080401C
:100ED000E1F700C000000E94700180E392E00E94F0
:100EE000610180EC0E94FA008FE392E00E946101B0
:100EF0009FEB26EB86E0915020408040E1F700C058
:100F000000000E9470018FE492E00E9461019FEB5B
:100F100026EB86E0915020408040E1F700C00000C1
:100F20000E946802882309F20E94700180E692E024
:100F30000E94610180EC0E94FA0081E792E00E9429
:100F400061019FE926E881E0915020408040E1F76F
:100F500000C0000081E00E94A6028823B9F00E9430
:100F6000700182E892E00E94610180EC0E94FA0028
:100F700086E891E00E9461019FE729EA83E09150B1
:100F800020408040E1F700C000002CC00E947001AA
:100F900083E992E00E94610180EC0E94FA0088EAF5
:100FA00091E00E9461019FE729EA83E0915020408F
:100FB0008040E1F700C000000E94700189EB91E0E1
:100FC0000E94610180EC0E94FA0084EA92E00E9493
:100FD00061019FEB26EB86E0915020408040E1F7D5
:100FE00000C0000080E00E94A6028823B9F00E94A1
:100FF000700185EB92E00E94610180EC0E94FA0092
:1010000086E891E00E9461019FE729EA83E0915020
:1010100020408040E1F700C000002CC00E94700119
:1010200086EC92E00E94610180EC0E94FA0088EA5E
:1010300091E00E9461019FE729EA83E091502040FE
:101040008040E1F700C000000E94700189EB91E050
:101050000E94610180EC0E94FA0084EA92E00E9402
:1010600061019FEB26EB86E0915020408040E1F744
:1010700000C000000E94700188ED92E00E946101B2
:1010800080EC0E94FA0089EE92E00E9461019FEFDD
:1010900020E782E0915020408040E1F700C000004E
:1010A0000E94B4038823B9F00E94700188ED92E099
:1010B0000E94610180EC0E94FA0086E891E00E94A3
:1010C00061019FE729EA83E0915020408040E1F7E9
:1010D00000C000001FC00E9470018AEF92E00E94D1
:1010E000610180EC0E94FA0088EA91E00E946101AF
:1010F0000E94700180EC0E94FA008BE093E00E9455
:1011000061019FE729EA83E0915020408040E1F7A8
:1011100000C000000E94700189E193E00E9461011B
:1011200080EC0E94FA008AE293E00E9461019FE94C
:1011300026E881E0915020408040E1F700C00000A7
:101140000E94EC04882309F453C00E94700189E1D5
:1011500093E00E94610180EC0E94FA0086E891E031
:101160000E9461019FE729EA83E09150204080407E
:10117000E1F700C000000E9470018BE393E00E9441
:10118000610184E890E00E94610180EC0E94FA0015
:1011900081E493E00E94610188E790E00E94610190
:1011A0009FE729EA83E0915020408040E1F700C0AA
:1011B00000000E94700186E493E00E9461018CE6C9
:1011C00090E00E94610180EC0E94FA008CE493E0C0
:1011D0000E94610180E690E00E9461019FE729EA98
:1011E00083E0915020408040E1F700C0000016C02D
:1011F0000E94700189E193E00E94610180EC0E94ED
:10120000FA0082E593E00E9461019FE729EA83E00A
:10121000915020408040E1F700C0000080EB91E059
:101220000E94DC019FE32DE083E09150204080404C
:10123000E1F700C00000F2CFA1E21A2EAA1BBB1BEF
:10124000FD010DC0AA1FBB1FEE1FFF1FA217B30792
:10125000E407F50720F0A21BB30BE40BF50B661FA8
:10126000771F881F991F1A9469F76095709580956C
:1012700090959B01AC01BD01CF010895FC01882729
:101280009927E89421912032E9F3293010F02E308B
:10129000C8F32B3241F02D3239F4689404C00E9417
:1012A0007309820F911D219120532A30C0F31EF43F
:1012B000909581959F4F0895FB01DC0102C0059038
:1012C0000D9241505040D8F70895FB01DC01415088
:1012D000504030F08D910190801919F40020B9F739
:1012E000881B990B08957AE0979F902D879F802DFA
:0A12F000910D11240895F894FFCF2A
:1012FA0031323334353637383930313231323334AA
:10130A003536373839303132313233343536373889
:10131A003930313231323334353637383930313287
:10132A003132333435363738393031323334353671
:10133A00373839303132333435363738393031325B
:10134A003334353637383930313233343536373845
:10135A003930313233343536373839303132333443
:10136A003536373839303132333435363738393023
:10137A00313233343536373839303132003132335D
:10138A0034353637002B43535100525353493A00F0
:10139A002B434D45204552524F52002B5341504248
:1013AA0052004C4F433A00636F6C6F6E3A002B4306
:1013BA00495047534D4C4F43004C4F43636F64654C
:1013CA003A00636F6D6D613A002B434D4753002B12
:1013DA00434D53204552524F52000D0A002B434DA4
:1013EA0047520047534D204D4F44454D2053494DD8
:1013FA0038303000496E697469616C697A61746960
:10140A006F6E2E2E0047534D204D4F44454D2049B7
:10141A004E49542E2E005375636365737366756C5B
:10142A002E2E2E21212100524553504F4E53452036
:10143A004552524F52212100436865636B20507216
:10144A006F63656475726521002A4552524F5220B6
:10145A0048414E444C494E473A00312D5455524E5C
:10146A002D4F4620504F5745522100322D52455399
:10147A00544152542047534D2021210053494D20B5
:10148A0043415244205354415455533A00436865EA
:10149A00636B696E672E2E2E2E2E2E2E2E00496E0F
:1014AA0073657274656420536166656C7921002ADC
:1014BA0053494D2043415244204552524F523A001B
:1014CA00312D53494D2056616C6964697479003233
:1014DA002D52652D496E736572742053494D003340
:1014EA005F526573746172742053797374656D0009
:1014FA00495020424153454420415050532E212106
:10150A0000475052532053657474696E672E2E2E0D
:10151A002E004F50454E2054484520475052532ED6
:10152A002121004F50454E204750525320455252D8
:10153A004F52210055736520534D532053657276DF
:10154A006963657300434C4F53452054484520470F
:10155A005052532E2100434C4F534520475052536B
:10156A00204552524F522100534554555020485459
:10157A0054505345525645520048545450205365CE
:10158A007474696E672E2E2E2E004854545053459B
:10159A0052564552204552524F52005245534554D5
:1015AA00202053595354454D0047534D204C4F4327
:1015BA002E414E442054494D450047657474696E66
:1015CA00672E2E2E2E2E2E2E2E2E004C6F6E673A42
:1015DA00004C61743A00446174653A0054696D655F
:1015EA003A004552524F52204F63637572726564D6
:0415FA0021210000AB
:00000001FF
